:10000000FCC3000017C4000015C4000013C40000A6
:1000100011C400000FC400000DC400000BC4000098
:1000200009C4000007C400000C944D280C94352925
:100030000C949410FFC30000FDC30000FBC300003C
:10004000F9C30000F7C30000F5C30000F3C30000CC
:10005000F1C300000C942928EDC30000EBC300009D
:10006000E9C30000E7C30000E5C30000E3C30000EC
:10007000E1C30000DFC30000DDC30000DBC30000FC
:10008000D9C30000D7C30000D5C30000D3C300000C
:10009000D1C30000CFC30000CDC30000CBC300001C
:1000A000C9C30000C7C30000C5C300000501098023
:1000B000A101850319012AB700150126B700950192
:1000C00075108100C0050C0901A101850419012AE0
:1000D000A002150126A002950175108100C005013E
:1000E0000902A1010901A10005091901290815004A
:1000F0002501950875018102050109300931158135
:10010000257F95027508810609381581257F95019F
:1001100075088106050C0A38021581257F95017541
:10012000088106C0C005010906A101050719E029DB
:10013000E715002501950875018102950175088173
:10014000010507190029FF150026FF00950675080F
:10015000810005081901290515002501950575017E
:100160009102950175039101C00742092100000E1B
:10017000000D2100000D210B220000090254000394
:100180000100A0FA09040000010301010009211186
:100190000100012244000705810308000109040150
:1001A000000103010200092111010001224700079B
:1001B0000582031000010904020001030000000988
:1001C00021110100012232000705830320000112E2
:1001D0000100020000000897327549010001020089
:1001E0000122034500720067006F0044006F007831
:1001F00000200045005A0020005300680069006E8E
:10020000006500000028035A0053004100200054FC
:10021000006500630068006E006F006C006F00678F
:1002200000790020004C00610062007300000004AF
:1002300003090400000000000000000000000000AE
:1002400000000000000000000000000000000000AE
:10025000000000000000007E0F00D4FFFFFFC70079
:1002600000007800000000000000002A2B28000099
:100270000000000000000000000000000000290055
:100280000000002C1E3420212224342627252E365F
:100290002D3738271E1F20212223242526333336CD
:1002A0002E37381F0405060708090A0B0C0D0E0F20
:1002B000101112131415161718191A1B1C1D2F31A3
:1002C00030232D350405060708090A0B0C0D0E0F07
:1002D000101112131415161718191A1B1C1D2F3183
:1002E00030354C2223252628292A2C2D2F30323335
:1002F0003536383A3B3D3E4042434547494A4C4EED
:100300005051535557595A5C5E6062646668696B18
:100310006D6F71737577797B7D7F81838587898A1E
:100320008C8E90929496989A9C9E9FA1A3A5A7A824
:10033000AAACAEAFB1B3B4B6B8B9BBBCBEBFC1C254
:10034000C3C5C6C7C9CACBCCCDCED0D1D2D2D3D4E7
:10035000D5D6D7D7D8D9D9DADADBDBDBDCDCDCDC05
:10036000DCDDDDDDDDDCDCDCDCDCDBDBDBDADAD9D3
:10037000D9D8D7D7D6D5D4D3D2D2D1D0CECDCCCB55
:10038000CAC9C7C6C5C3C2C1BFBEBCBBB9B8B6B473
:10039000B3B1AFAEACAAA8A7A5A3A19F9E9C9A9803
:1003A000969492908E8C8A89878583817F7D7B79D4
:1003B000777573716F6D6B6968666462605E5C5AB5
:1003C0005957555351504E4C4A4947454342403E78
:1003D0003D3B3A3836353332302F2D2C2A2928260A
:1003E000252322FFAA7F55400001010101010101DF
:1003F00001010202020202020202020303030303DA
:1004000003030304040404040404050505050506A8
:100410000606060607070707070808080809090966
:10042000090A0A0A0B0B0B0C0C0C0D0D0D0E0E0E0F
:100430000F0F0F10101111111212131314141515A0
:1004400016161717181819191A1A1B1B1C1D1D1E12
:100450001E1F202021222223242425262627282966
:10046000292A2B2C2D2D2E2F303132323334353694
:100470003738393A3B3C3D3E3F4041424344454694
:100480004748494A4C4D4E4F505153545556585970
:100490005A5B5D5E5F616264656668696B6C6D6F17
:1004A0007072737577787A7B7D7E8082838587888A
:1004B0008A8C8E8F91939596989A9C9EA0A2A3A5C4
:1004C000A7A9ABADAFB1B3B5B7BABCBEC0C2C4C6C5
:1004D000C9CBCDCFD1D4D6D8DBDDDFE2E4E7E9EB81
:1004E000EEF0F3F5F8FAFDFF1E0F0500047F3F1F45
:1004F000643214643214783C1E1E140A0529003537
:1005000000E000E100010000001E00140004241DB2
:1005100000010001001F001A0016281B0001000145
:10052000002000080007420600E300280021001513
:10053000000921190023520100220017000A220598
:1005400000000001000100010000000100000001A6
:100550000001000100000001000000010023001C58
:10056000000B22110000000100240018000D2110D2
:10057000002152010025000C000E0036002B002C3B
:1005800000260012000F28370001002B002700135F
:100590000033243800010001002A002D0034002E11
:1005A000000100000001003502010001000100000F
:1005B0000001001E022F0001000100010001001FC8
:1005C000023000010001000100010020022F02267C
:1005D000020100010001002102300227022A00016D
:1005E00000010022020100010000000100010001E1
:1005F00000000001000000010001000100000001F6
:100600000000000100010023025000010000000171
:100610000001002402510001000100010001002539
:10062000025200010001000100010026024F0001FA
:100630000001000100010027023802010001000151
:100640000001003102310001000100000001000141
:100650000001000100010000000100010001000193
:100660000001000100010001000100010001000182
:100670000001000100010001000100010001000172
:100680000001000100010001000100010001000162
:100690000000000100010001000000010000000155
:1006A0000001000100000001000000010001000144
:1006B000000100487E000001000100457E407E01EF
:1006C00000010001000100467E417E0100010001A1
:1006D000000100477E427E0100010001000100018F
:1006E00000437E01000100010001000100447E0181
:1006F0000001000000007C010020780100010000E2
:10070000000100497E217822780100010001004AA1
:100710007E23782478010001000100010029782A55
:10072000780100010001000100277828780100010C
:1007300000010001000100010000000100010001B2
:1007400000000001000000010001000100000001A4
:100750000000000100010001000100010000000193
:10076000000100240021001E0027000100010025D7
:100770000022001F0001002B0001002600230020A2
:100780000001000100010001000100010001000161
:10079000000100A800A900AA00010000000102E079
:1007A000200103E0004C4C4C4C4C004C4C4C4C4C4D
:1007B0004C4C4C4C4C4C4C4C4C4C4C4C4C4C4C4C79
:1007C0004C4C4C4C4C4C4C004C4C4C004C004C5247
:1007D00052005200525252525200525252525252EF
:1007E00052525252525252525252525252525252E9
:1007F0005252525252525252000011241FBECFEF99
:10080000DAE0DEBFCDBF24E0AEEFB1E001C01D9263
:10081000A438B207E1F711E0A0E0B1E0E6E9FAE5BB
:1008200002C005900D92AE3FB107D9F70E94202477
:100830000C94E12CE5CB8098889A8198899A8498C9
:100840008C9A85988D9A86988E9A87988F9A089513
:10085000209828982198299822982A9823982B98AC
:1008600052985A9853985B983E9846980895FC0180
:10087000942F241708F4922F691708F4962FEE0F7F
:10088000FF1FEE0FFF1FDF01A250BC4F13969C937A
:10089000691B12976C93491B4E93291B12962C933C
:1008A000E65CFB4F93836183408322830895259800
:1008B0002D98089526982E98089527982F98089592
:1008C00056985E98F4DFF6DFF8CFFB01D901893046
:1008D00021E2920769F54A31510581F18481813025
:1008E00069F514968C911497813041F5918186E0D9
:1008F000E081F0E0899FE00DF11D1124EB55F84FE8
:1009000094919A32D9F011962C91EE91F0E0829F59
:10091000E00DF11D1124EB55F84FE49181E0EA322E
:1009200009F080E021E09E1301C020E0822B0895B1
:100930008F30984299F64C315105CFCF81E0089520
:10094000DC01ED91FD918191FE93EE930895DC0120
:10095000ED91FD9184913196FE93EE9308958093ED
:10096000F9039093FA0308958093FB039093FC039B
:10097000089521E030E002C0220F331F8A95E2F78C
:100980008091FB039091FC03822B932BEDCF21E010
:1009900030E002C0220F331F8A95E2F72095309590
:1009A0008091FB039091FC0382239323DDCF9E3043
:1009B00090F5863080F5E82FF0E086E0989FE00D16
:1009C000F11D112451E0E1FD54E0E0FD550FE2FD81
:1009D000529583E0F695E7958A95E1F7EE0FFF1FB4
:1009E000EE0FFF1FE45DFC4F20E030E070E041912E
:1009F000DF01CB01022E02C0969587950A94E2F79B
:100A00008695880B8427852384278E932F5F3F4FFD
:100A10002430310561F70895292F9E3070F5863016
:100A200060F590E036E0239F800D911D1124682F22
:100A3000677023E0969587952A95E1F7FC01EE0F04
:100A4000FF1FEE0FFF1FE45DFC4F40E050E080E031
:100A5000219130E0062E02C0369527950A94E2F7E0
:100A60002170042E01C0220F0A94EAF7822B4F5FF7
:100A70005F4F4430510561F7089580E00895E0919B
:100A80006E0390916D03E91302C080E008959F0109
:100A900059E0E59FF0011124EC51FD4F51815613AF
:100AA00006C05081581303C05581541305C02F5FF1
:100AB0003F4FF901E770E7CF81E008958091E302AD
:100AC00090E020E0022E001C0008281709060CF018
:100AD00008952F5FF7CF20917B032D79A1F49035F6
:100AE00078F49032C0F441E08333910539F0C0F4DA
:100AF00041E08E31910588F4049728F0842F089501
:100B0000392F365511F040E0F9CF9C01205F364572
:100B100027303105C0F390E0E6CF8C97A1F7EECFF8
:100B2000C69741E0039750F3EECF80916E0320917A
:100B30006D03281301C0089501968770FACF909134
:100B40007E038095892380937E03282F277061F48C
:100B5000891751F09091800392FF06C08695869583
:100B6000869515DF10927E0308958095982F8091C9
:100B70007B03892380937B030895972F7E30C8F4ED
:100B80006630B8F48430C0F470E026E0929F600DC7
:100B9000711D112494E5899F600D711D1124FB01C5
:100BA000EE0FFF1FE350FB4F85919591282F822F69
:100BB000089520E090E0FBCF21E0FCCF803E91053E
:100BC000D1F1C8F48133910509F481C048F4893228
:100BD000910509F471C08A32910509F47FC0089526
:100BE00089339105E1F082389105C9F0853391058B
:100BF00009F45DC00895843E9105D1F148F4823E28
:100C0000910531F1833E910541F181EE90E0089527
:100C1000863E9105C1F1873E9105F1F1089520913D
:100C20007F03237009F064C02091800323FF14C068
:100C300089E290E0089520917F0320FD45C0309126
:100C4000800330FF09C024FD24C083EE90E00895A6
:100C500020917F0322FDF7CF089520917F0322FD8D
:100C600044C03091800330FD43C024FFF5CF11C054
:100C70002091800321FFF0CF80917F0384FD09C084
:100C800087EE90E0089520917F0323FFE5CF24FFB6
:100C9000F7CF80E090E0089520917F0323FD2BC0E3
:100CA0003091800331FFE1CF84EE90E008952091F0
:100CB0007F0325FFD1CFBCCF20917F0325FD1EC030
:100CC0002091800323FFC8CF89E390E0089520910D
:100CD0007F0326FFC1CF8AE290E0089520917F0331
:100CE00026FFBACF81E390E0089582EE90E0089568
:100CF00080EE90E0089586EE90E0089585E390E020
:100D0000089590917F0392FF10C041E0282F247135
:100D1000243009F040E031E0282F2871283009F014
:100D200030E0431711F02CE0822793FF10C041E020
:100D3000282F2471243109F040E031E0282F287158
:100D4000283109F030E0431711F02CE08227309170
:100D5000800330FF10C051E0282F2171213009F0AD
:100D600050E041E0282F2871283009F040E0541766
:100D700011F029E0822731FF10C041E0282F2171B6
:100D8000213109F040E031E0282F2871283109F0A5
:100D900030E0431711F029E0822794FF02C083FD61
:100DA000877E08950F931F93CF93DF9307DFEC01A6
:100DB000D23508F04DC0D03508F0C3C0C03ED105D3
:100DC00030F5CD3CD10508F09AC0C83AD10578F489
:100DD000C53AD10508F090C0C130D10599F1CE01D6
:100DE0000497813A910570F1C0E0D0E02BC0CE01AC
:100DF000885A91094B97C0F7C85AD0E0CC0FDD1F35
:100E0000CF56DE4F0990D881C02DD4641BC0D0349A
:100E100090F4D03208F0A8C0C83ED10598F0CE01B9
:100E200091509F3108F78D2F6CDF082F8C2F90E0A9
:100E3000C5DE902B54C08C2F90E0C0DEDF70C82F31
:100E4000D92BD06ACE01DF91CF911F910F910895D8
:100E5000C03882E5D807B8F5C03682E5D80708F073
:100E600056C0C03482E5D807C8F4C03282E5D8073E
:100E700008F047C08C2F8695869520E2829FC0019E
:100E80001124C37021E030E002C0220F331FCA9545
:100E9000E2F7E901C82BD92BDD68D4CF8C2F8695DA
:100EA0008695877020E2829FC0011124C37021E0E3
:100EB00030E002C0220F331FCA95E2F7E901C82BC8
:100EC000D92BDC68BFCFC03C82E5D80750F48C2F0B
:100ED0008F71C03AD24580F5982F84EF906AEC016B
:100EE000B1CFCE01805C9245809708F07DCFDC2F9A
:100EF000DF71C0EFD06AA6CFA497D064A3CFD0652E
:100F0000A1CF8C2F8F71D82FC1EFD06A9BCF8C2FA0
:100F100086958695877020E2829FC0011124C37058
:100F200021E030E002C0220F331FCA95E2F7E90149
:100F3000C82BD92BDA6886CFE4DEC0E0D82FD06288
:100F400081CF8C2F8F71DDDE93E0CC0FDD1F9A9562
:100F5000E1F7DF70282F84FF04C090E1899F9001A2
:100F60001124C22FD0696ECF8D2F8F71CADE082F4A
:100F70008C2F90E023DE902BEC01E1CFCF92DF921B
:100F8000FF920F931F93CF93DF936C010091FB03AC
:100F90001091FC038091F9039091FA03082B192B0F
:100FA000CFE0D0E081E090E00C2E02C0880F991FC6
:100FB0000A94E2F780239123892B61F4219790F71B
:100FC000F12C8F2DDF91CF911F910F91FF90DF902A
:100FD000CF900895FC2EB6018C2FCFDDE3DE019774
:100FE00069F3EFCF1F93CF93DF93FC012781308507
:100FF0002115310589F48581C081D181811589F060
:10100000611579F0CE01BADF182F682FCE01CFDC41
:10101000BE01812FB2DD9C01C901DF91CF911F91EB
:101020000895CE01F9DC182FF3CFCF93DF93EC01B5
:10103000A5DFBE01A2DDB6DEDF91CF910895FC01F0
:1010400084818115A9F087819085009799F0AADEA7
:1010500092959F709630C9F088F4925F9F7092309D
:1010600038F491E0803F79F058F491E0883E58F0F0
:1010700090E009C080819181D8DFEACF9A5FEECFFE
:1010800091E0843FA9F7892F089591E0813F09F00D
:1010900090E021E0883E08F020E0922BF4CF80E041
:1010A00008950895CF92DF92EF92FF921F93CF930E
:1010B000DF93462F172FE82FF0E0E851FC4F711116
:1010C0000CC0E4918E2F7E2F6E2FDF91CF911F9158
:1010D000FF90EF90DF90CF900895F491EF2F86E08E
:1010E000689FE00111242FEF30E0CE01B9010E948A
:1010F0004E2BDB01CA01880F991F65E56A9FA0018D
:101100006B9F500D1124841B482F440F480FC901B9
:10111000811B9109F89F7001F99FF00C11248F2D0C
:10112000149FB0011124672F70E06901C61AD70A15
:10113000B601F69F6001F79FD00C1124A330B105D2
:1011400049F1B901641B7109AB01149FB001159FEE
:10115000700D1124672F70E0261B370BF29FA00142
:10116000F39F500D1124752FCC3FD34050F4A13084
:10117000B105A1F0129709F0A7CFEF2D852F7F2F92
:10118000A3CFA430B10569F0169709F49DCF7F2D48
:101190008D2D9ACF7D2DEF2D8F2F96CF7F2FED2D7B
:1011A00093CFE52F7F2DF8CFCF93762FC22F682FC7
:1011B000842F78DF472F282F8C2F90E058DBCF919A
:1011C0000895CF93DF938091730380FD0BC0C0E03F
:1011D000D0E020E040E060E0CE0149DB2196CF3056
:1011E000D105B9F77FD4DF91CF910895FF920F9386
:1011F0001F93CF93DF93182F062FF42E8091730344
:1012000080FF0CC0C0E0D0E02F2D402F612FCE0119
:101210002EDB2196CF30D105B9F7D3DFCDB7DEB7BE
:10122000E5E00C948B2B762F9091730390FF08C010
:10123000682F842F37DF962F672F482F892FD6CF1F
:101240000895CF93DF93EC01E3E7F3E043816281FC
:101250008C81E9DF8C818F5F8C83DF91CF91089542
:10126000CF93DF93EC01EC81F0E0ED51FD4F449121
:10127000E3E7F3E062818181D6DF8C818F5F8C832D
:10128000DF91CF910895FF920F931F93CF93DF9338
:10129000EC01F12C00E010E08C8198014091760384
:1012A000609175038F0D80DF0F5F1F4F81E1F80E96
:1012B0000F30110589F785DF8C819A8190FF07C077
:1012C0008F5F8C83CDB7DEB7E5E00C948B2B81501C
:1012D000F8CFEF92FF920F931F93CF93DF93FC0110
:1012E0008281EE24E39480FF02C0EE24EA94C0E001
:1012F000D0E020E040E060E0CE01B9DA04E010E0A8
:10130000F12C80916E028F0D80318CF16FE00E9484
:10131000AB2B892F082E001C00088C170D0679F4C2
:10132000409176030403A0011124559547955595E6
:1013300047959E01609175038091740335DFFE0C23
:1013400001501040F1F62196CF30D10591F639DFEA
:1013500080916E029E2D913071F4811591F0815033
:1013600080936E02CDB7DEB7E6E00C948A2B87FF40
:10137000D1CF815FCFCF90E00196BE010E94B82B04
:10138000EFCF8EE0EDCFCF93DF93C0E0D0E020E051
:1013900040E060E0CE016BDA2196CF30D105B9F79D
:1013A000C0E0D0E080916D02082E001C0008C81734
:1013B000D0055CF180910601082E001C00088C17F6
:1013C0000D061CF19E01409176036091750380919A
:1013D0007403EADE2196CF30D10521F7F2DE809149
:1013E000050190916D02980F90936D022091060176
:1013F000280F20930601121614F49E301CF08195DC
:1014000080930501DF91CF91089520E040E060E0F6
:10141000CE012DDADFCFA0E0B0E0E1E1FAE00C94FC
:101420006A2BEC01FC812F2F30E0D9010E94B02CF7
:101430009B01AC010E94A02C7B018C0180E290E01A
:101440008F1B9109FC01A5E59701A8010E94A02C22
:101450005B016C019F01DF010E94992B9B010E949F
:10146000D12B9B01AC012E0D3F1D401F511FB5011B
:10147000C6010E94BF2C022F30E00A3280F5A9017C
:10148000440F551F420F531F55954795142F109524
:10149000E12CF12C85E5801BD82E8D2DE1FC802FD1
:1014A0009701412F609175037FDE8FEFE81AF80AEC
:1014B0008FE0E816F10489F784DE9C8181E09115C4
:1014C00019F0903219F48FEF809304018091040198
:1014D000890F8C83CDB7DEB7EAE00C94862B85E5C7
:1014E00090E0821B930BAC01440F551F480F591F0E
:1014F0005AF64F5F5F4FC8CFCF93DF93EC01209137
:1015000076039C81892F817090FD822F692F6270F4
:1015100091FD622F492F447092FD422F67DE8C812E
:10152000019687708C83DF91CF9108950F931F935D
:10153000CF93DF93EC0120E030E060917503809160
:1015400074039C8189010F5F1F4F273031053CF4E4
:10155000911541F04091760327DE9801EECF40913E
:101560007603911140E020DE98010F30110529F734
:1015700028DE8C81019681708C83DF91CF911F9141
:101580000F910895579A089510928A0310928B0331
:1015900080912601811104C010922501109227012B
:1015A00080912D01811104C010922C0110922E0106
:1015B00080913401811104C01092330110923501E1
:1015C0000895AC0180918D0360918C03982F69136D
:1015D00001C00895292F30E0F901EE0FFF1FEE57EB
:1015E000FC4F0190F081E02DE417F507B9F4E0E03D
:1015F000F0E04330510540F467E0649FF001659FDF
:10160000F00D1124EF5DFE4F41E044839813E1CFCC
:101610002F5F3F4F237020938D0308952395922FC2
:101620009370D5CF382F25EB3203C001112497FFDB
:1016300004C080589109892F089580589F4FFBCF8F
:1016400080915A0380FD17C081FD17C082FD19C02B
:1016500080915903811599F08C3398F428E3829F87
:10166000C00111246CE370E00E94B82B6115710574
:1016700051F0862F08956EE0FCCF6CE1FACF68E060
:10168000F8CF68E3F6CF81E0089580915A0380FD9A
:1016900019C081FD15C082FD17C0809158038115C6
:1016A00089F08C3388F427E0829FC00111246CE319
:1016B00070E00E94B82B6115710541F0862F0895E6
:1016C00063E0FCCF61E0FACF67E0F8CF81E00895F6
:1016D000E091C902F091CA02309739F00190F0818F
:1016E000E02D309711F00995089580E00895A3E06A
:1016F000B0E0EDE7FBE00C94722B20911D023091DD
:101700001E0228173907B1F080931D0290931E0224
:10171000E091C902F091CA02309761F00084F1852E
:10172000E02D309739F023E029838A839B83CE0113
:10173000019609952396E2E00C948E2BA3E0B0E08D
:10174000E4EAFBE00C94722B20911B0230911C0206
:1017500028173907B1F080931B0290931C02E09187
:10176000C902F091CA02309761F00084F185E02D42
:10177000309739F024E029838A839B83CE01019638
:1017800009952396E2E00C948E2BA2E0B2E0EFEFF5
:1017900090E02C91821759F01196EF3F19F4211126
:1017A00001C0E92F9F5F9630A1F7EF3F09F408953C
:1017B000FE2FFF0FFF0BE050FE4F82830895E2E003
:1017C000F2E09191891302C0DF011E9292E0E830AD
:1017D000F907B9F708958091130108950895FC0160
:1017E00020911102309112022617370748F0611537
:1017F000710529F49091E8009E779093E8009B0191
:1018000090E02115310541F4911106C08091E80066
:1018100082FF32C080E00895809178028115C1F185
:101820008530C1F18091E80083FD30C08091E800EF
:1018300082FDECCF8091E80080FFE3CF8091F30040
:101840004091F200582F2115310519F0483051050B
:1018500058F091E04830510509F090E04091E800DF
:101860004E774093E800CDCF81918093F1002150D5
:1018700031094F5F5F4FE7CF80917802811541F0CA
:10188000853041F08091E80083FFC0CF81E008956A
:1018900082E0089583E00895982F9093E9008917D6
:1018A00071F07091EC002091ED005091F00021FD5D
:1018B00009C09F5F973089F78093E9000895762FDC
:1018C000242F50E03091EB003E7F3093EB003091BD
:1018D000ED003D7F3093ED003091EB0031603093AF
:1018E000EB007093EC002093ED005093F0002091FA
:1018F000EE0027FDDECF089580910B0287FF13C015
:101900008091E80082FF06C08091E8008B77809389
:10191000E8000895809178028111F2CF08958091B6
:1019200078028115D9F38091E80080FFF8CF80918B
:10193000E8008E77ECCF2091E4003091E50095E649
:10194000A9012091EC00822F817020FF06C08091B8
:10195000E80080FF06C080E008952091E80022FDA5
:101960001AC080917802811589F0853089F08091C4
:10197000EB0085FD0FC02091E4003091E500421797
:101980005307F9F29150E1F684E0089582E008955A
:1019900083E0089581E00895CF93DF93C8EDD0E010
:1019A00088818F7E8883E7EDF0E08081816080838D
:1019B00084E082BF81E080930A0288818E7F8883E1
:1019C000E2EE10821092DA00A1EEB0E01C92888163
:1019D0008F77888388818068888388818F7D8883DA
:1019E00019BC10927802109209021092770210929C
:1019F0000802A0EE8C918B7F8C9388818160888314
:101A000042E060E080E048DFA1EEB0E08C918E7FA4
:101A10008C93E2EEF0E08081816080838081886039
:101A20008083E0EE80818E7F8083888180618883DF
:101A3000DF91CF910895E8EDF0E080818E7F808383
:101A40001092E2001092DA001092E100A0EEB0E0F5
:101A50008C9181608C9380818F77808319BCA7EDF6
:101A60008C918E7F8C9380818F7E808310920A026E
:101A70000895A1E0B0E0EFE3FDE00C94712B182F86
:101A8000873020F58091370190913801892B31F50D
:101A9000198224E630E0AD01BE016F5F7F4F80E424
:101AA0000E948C2A809337019093380199819095F8
:101AB0009F73E12FF0E0EA58FB4F8081891781F096
:101AC000908381E02196E3E00C948D2B8FB19FB140
:101AD000969596959C738370982BE9CF90E0E8CF0C
:101AE00080E0F0CF24E630E04CE350E06AE374E0BD
:101AF00084E80E94422A3BB13F772BB120684FB760
:101B0000F8948EEF93E0FC010196508168E02BB9C8
:101B1000000000C057FF3BB9550F000000C000C0D7
:101B200000C03BB900C06A9591F754E08A3395072D
:101B300051F74FBF8FE594E00197F1F700C0000027
:101B400008950E9460048FEF90E090938900809345
:101B5000880090938B0080938A0090938D008093EF
:101B60008C00259A2D9A8FEF90E722E081509040CB
:101B70002040E1F700C00000269A2E9A8FEF90E7F0
:101B800022E0815090402040E1F700C00000279AF9
:101B90002F9A8FEF90E722E0815090402040E1F7AC
:101BA00000C000000E9457048FEF90E722E08150B0
:101BB00090402040E1F700C000000E945A048FEFDF
:101BC00090E722E0815090402040E1F700C0000003
:101BD0000E945D040C9460040F931F93CF93DF93D6
:101BE000EB018A0190917802943059F58093E900D5
:101BF0008FEF9091E80095FD06C095ED9A95F1F76D
:101C000000008150B1F78091E80085FF1AC093DE93
:101C1000811112C08091E80085FD06C08091E80026
:101C20008E778093E800F3CF88818093F100015094
:101C3000104011F02196EECF8091E8008E778093CE
:101C4000E800DF91CF911F910F910895CF93DF931B
:101C5000EC0148E050E0BC0181E0BEDF88E0FE011D
:101C6000A3E1B2E001900D928A95E1F7DF91CF9167
:101C7000089545E050E0BC0182E0AECF43E050E083
:101C8000BC0183E0A9CFA2E0B0E0E9E4FEE00C945F
:101C9000702B80E280933701109238018091FD0310
:101CA00081110EC00E94C92981E08093FD038FEF4E
:101CB00093ED20E3815090402040E1F700C0000008
:101CC0009FE319829A8304E610E022E030E0CE011F
:101CD0000196AC0160E080E40E94002B8093370104
:101CE00090933801009769F422E030E0CE0101962C
:101CF000AC016CE080E40E94002B8093370190934C
:101D000038012296E4E00C948C2B9091800392FB96
:101D1000222720F9281779F080FB92F9909380030D
:101D200060917F037091800384E090E00E94702CAA
:101D300082E00C949F05089580917B03909181032C
:101D4000892B90917C03911589F0892B90E022E0FA
:101D500032E0F90140812F5F3F4F41119F5F42E028
:101D600028303407B1F7911110927C038093000260
:101D700048E050E06BEC72E080E092E00E94372C8B
:101D8000892BB9F088E0E0E0F2E0ABECB2E0019042
:101D90000D928A95E1F7E091C902F091CA0230975D
:101DA00041F00280F381E02D309719F080E092E05D
:101DB00009950895811531F090917B03982B9093AC
:101DC0007B03BACF0895811519F00E94B505B4CFF1
:101DD00008958F929F92AF92BF92CF92DF92EF922F
:101DE000FF920F9388E090E00E944C2C4B015C0125
:101DF000609373039092740380937503B09276039B
:101E000010927703109278031092790310927A035C
:101E100083E290E00E94442C9401A5018092730318
:101E200030937403A09275035093760380937703E5
:101E3000109278031092790310927A030F91FF9019
:101E4000EF90DF90CF90BF90AF909F908F900895CC
:101E50000F93CF93DF93C3E7D3E0488159816A8121
:101E60007B8188E090E00E94682C6C81262F60E0E6
:101E700070E0CB01622F83E20E94562CDF91CF915C
:101E80000F91089585E080937303109274038FEF90
:101E900080937503809376031092770383E793E032
:101EA000D7CF80917703833018F48F5F80937703C7
:101EB00083E793E0CDCF80917703811519F08150AE
:101EC0008093770383E793E0C3CFA0E0B0E0EBE635
:101ED000FFE00C946A2BD82FB62E042FA22E9091DF
:101EE000730390FF21C0192F16951695E12FF0E08E
:101EF000EA59FE4F8081809371039C7F9430C9F42E
:101F00006D2F7B2D842FCED8962F672F482F892FAA
:101F10006DD9D0937403B092750300937603A11426
:101F200019F083E793E094DFCDB7DEB7EAE00C94D5
:101F3000862B823019F400917603EBCF863019F4AA
:101F4000D0917403E6CF8930D9F3893111F7195153
:101F5000E12FE695F0E0ED51FC4FC4916D01760163
:101F6000C6016FE070E00E944E2B862F8D0F10FF90
:101F700002C08D2F861B9701402F6B2D15D98FEF37
:101F8000E81AF80ACC0ED11C8FE0E816F10441F7EC
:101F900018D9BFCFE3E7F3E0818121E0438162817B
:101FA000885F93CFE3E7F3E0818121E043816281A1
:101FB00088508BCFE3E7F3E0628128E0620F08F4FA
:101FC0006FEF21E04381818180CFE3E7F3E062811D
:101FD00028E0621B08F460E021E04381818175CF35
:101FE000E3E7F3E0438128E0420F08F44FEF21E0FC
:101FF000628181816ACFE3E7F3E0438128E0421BFD
:1020000008F440E021E0628181815FCFA0E0B0E090
:10201000ECE0F0E10C94682BFC018281A82EB480E6
:1020200081E08483E3EEF2E00491E2E6F3E0E49100
:10203000E0907603E6948FE7E80EF12CEE0CFF1C9F
:10204000EF2CF12CC2E2D2E06D011FEFE01B8E2FCE
:1020500090E04C018A2D833030F4809174038883A2
:10206000809175038983B11015C01B821A82960175
:102070004A816981888198D88FEFC81AD80A259635
:102080008FE0C816D10431F79CD8CDB7DEB7ECE0AD
:102090000C94842B8B818115E1F081508B83189FE8
:1020A000C00111246C8170E00E944E2B70E0FB0196
:1020B000ED51FD4F8491801B189FC0011124B40184
:1020C0000E944E2B80917603689FB00111247A8381
:1020D000CECF0E941E2C6FEF70E00E94B82B8E15A1
:1020E0009F052CF68A2D833090F00E941E2C6FEFF6
:1020F00070E00E94B82B88830E941E2C20917503EB
:102100002695622F70E00E94B82B280F29831A822F
:1021100080917603893C20F088EC8C838B83A7CF59
:102120008431D8F784E1F9CF1F921FB61F92112492
:102130008F939F93AF93BF9380917402811113C0CB
:102140008091A0029091A102A091A202B091A3025D
:102150004196A11DB11D8093A0029093A102A0936E
:10216000A202B093A302BF91AF919F918F911F9054
:102170001FBE1F9018952FB7F8948091A0029091E0
:10218000A102A091A202B091A3022FBF0895CF9304
:10219000DF93EC01F0DF8C1B9D0BDF91CF91089555
:1021A000A1E0B0E0E6EDF0E10C946B2B80913701FB
:1021B00090913801892B81F08091B8028F5F8093D4
:1021C000B802811109C05FDD90E080933701109261
:1021D0003801892B09F4B5DCC12CD12CF12CBC2C95
:1021E0008C2D895FE82E8091370190913801892BE1
:1021F000B9F481E00C2C01C0880F0A94EAF78095AD
:10220000898304E610E021E030E0CE010196AC01C4
:1022100062E180E40E94002B8093370190933801A3
:102220008E2D8B3009F497C008F087C0893009F4EF
:102230008CC08A3009F48CC0883009F483C0209A9D
:1022400028988B2D16DC182F8E2D13DC182BF12AD5
:102250000E9428048FEFC81AD80A87E0C816D10454
:1022600009F0BDCF1092B7028091B602182F8115E8
:1022700009F47BC080DF4091B4025091B5029C010B
:10228000241B350B8093B4029093B50284179507F5
:10229000C9F0C90191118FEFE5EAF2E020E030E0EA
:1022A0009191911539F0DF011197891708F459C000
:1022B0001C92312F92E0E33BF90791F73093B30280
:1022C0002093B602F1100CC0F12E8091B30281155B
:1022D00081F1F11005C04FDF8093B4029093B502F5
:1022E0001092B3029091B60209EB12E026E734E0B7
:1022F000A5EAB2E047EC52E080E07EE1F8016191AE
:102300008F01F62EF90161919F01F61651F0EC91C3
:10231000E11107C07C93C8010197FC01608381E053
:1023200091E011964017510749F79093B6028093B8
:10233000B7022196E9E00C94872B8C3079F4539AFC
:102340005B987FCF219A29987CCF229A2A9879CFBF
:10235000239A2B9876CF529A5A9873CF3E9A4698E2
:1023600070CF981B9C93212FA5CFF11409F4ADCF0A
:10237000B2CF609173036695669570E04BE050E0D4
:1023800087E091E00E942A2C892B19F481E0809348
:102390007203F1DE809396029093970208959091D4
:1023A000730390FF2CC0811559F18B3258F58F7350
:1023B000880F880F909173039370892B8093730318
:1023C000611519F083E793E043DD6091730366952F
:1023D000669570E04BE050E087E091E00E942A2C87
:1023E000892B91F01092720381E08093990220E092
:1023F00040917603609175038091740366CD0895D2
:1024000081E0D6CF8AE2D4CFB4DFEECF80917303E0
:10241000869586958F5F8B3208F081E061E0BFCFB3
:102420008091730386958695815009F48AE261E074
:10243000B6CFA1DE9C0190915C0380915D03982B47
:1024400021F020939E0230939F0290915E03809131
:102450005F03982B21F020939C0230939D02E09122
:10246000C902F091CA02309741F00680F781E02D51
:10247000309719F08BE593E009950895611509F4FB
:1024800040C0E82FED5CE33148F4F0E0ED51F34D4E
:102490000C94CB2BD5D8819580935D03CACFD0D82F
:1024A000FBCFCED8819580935C03F8CFC9D8FBCF02
:1024B000ECD880935E03F2CFE8D88195FACFE5D8C7
:1024C000819580935F03EACFE0D8FBCF815D990BC4
:1024D00021E001C0220F8A95EAF780915B03822BED
:1024E00080935B03DBCF80915A03816080935A0312
:1024F000D5CF80915A038260F9CF80915A038460CE
:10250000F5CF40915C038D3C59F480915D0387FFCA
:102510000DC010925D03411559F41092590308C083
:102520008E3C81F480915D0318169CF3411581F077
:1025300080915E0390915F03892B09F0AFCF1092D9
:102540005803ACCF8F3C41F447FFF0CF10925C03AF
:1025500080915D038115E0CF803D19F41416B4F32A
:10256000E5CF90915E03893D29F41916FCF610928F
:102570005E03DCCF8A3D19F497FFD8CFF8CF909156
:102580005F038B3D29F497FFD1CF10925F03CECF2D
:102590008C3D19F41916CCF3C9CF982F915D983062
:1025A00078F4815D990B21E001C0220F8A95EAF74A
:1025B000822F809590915B03892380935B03B6CF34
:1025C0008D3D31F480915A038E7F80935A03AECFB4
:1025D0008E3D21F480915A038D7FF7CF8F3D09F016
:1025E000A5CF80915A038B7FF0CFCF93C82F811551
:1025F000A1F08238A1F46CD881FD0FC089E3C5D861
:102600009BDB8FEF97EE23E0815090402040E1F775
:1026100000C0000089E3D3D88FDBCF9108958338C1
:1026200089F456D880FDF9CF83E5AFD885DB8FEFED
:1026300091EE24E0815090402040E1F700C000007E
:1026400083E5E9CF843889F443D882FDE6CF87E477
:102650009CD872DB8FEF91EE24E0815090402040B7
:10266000E1F700C0000087E4D6CF8450813A70F4CF
:10267000E2E0F2E088E092E02081C217B1F1319609
:102680008E179F07C9F78C2F80D8C6CF8C2F805EFE
:10269000883060F4C77021E001C0220FCA95EAF7C4
:1026A00080917B03822B80937B03B6CF8C2F855A3E
:1026B000833028F48C2F8452990B19D8AECFEC2F8D
:1026C000E85AEB3148F4F0E0EE0FFF1FE953FE4FFC
:1026D0008081918133D8A1CF8C2F8D5C833108F01C
:1026E0009CCF61E08C2FCADE98CF8C2F68D824DB7A
:1026F000CACF811509F44BC0823851F40E94680B8F
:1027000081FF45C089E341D817DB89E358D814CB52
:10271000833849F40E94680B80FF39C083E535D8BF
:102720000BDB83E5F3CF843849F40E94680B82FF0A
:102730002EC087E42AD800DB87E4E8CF982F945096
:10274000913A20F3982F905E983058F4982F81E0BA
:1027500091FD84E090FD880F92FD82950E94B50561
:10276000D6CF982F955A933020F480E090E00C94C7
:10277000770B982F985A9B3120F480E090E00C94CE
:102780009E0B982F9D5C933110F460E077CE0895F6
:102790001F93CF93DF93182FEB0127DF209731F49E
:1027A000812FA7DFDF91CF911F9108958FE99FE0DF
:1027B0000197F1F700C000002197F0CFA0E0B0E052
:1027C000E4EEF3E10C94692B6C015B01C501F601A9
:1027D0000995813090F109F049C0C501F6010995CC
:1027E000813059F4C501F601099560E570E089333F
:1027F00011F060E070E0CCDFE9CF823029F4C50150
:10280000F6010995F2DEE2CF833029F4C501F60125
:1028100009956FDFDBCF843071F4C501F6010995AE
:10282000C0E0D0E01AE0282F2053330B2A303105C6
:1028300048F0209799F48111C9CFCDB7DEB7EBE00E
:102840000C94852B1C9FC0011D9F900D1124280FF7
:10285000391FE901C501F6010995E5CFEFE9FFE070
:102860003197F1F700C000002197E3CFE82FF0E0A7
:10287000ED59FD4F9491992E282F26952695269552
:1028800030E0F901ED5AFD4F0491877010E0082EF9
:1028900002C0159507950A94E2F7F901ED5BFD4F2B
:1028A000E490F12C082E02C0F594E7940A94E2F724
:1028B0002D5C3D4FF901C491D0E002C0D595C7957C
:1028C0008A95E2F700FF02C081EE8FDEE0FE02C0D3
:1028D00086EE8BDE60E070E0892D5ADFE0FE02C0FC
:1028E00086EE07DF00FF02C081EE03DFC0FF6ECF80
:1028F00060E070E08CE27FCFA2E0B0E0E2E8F4E1DB
:102900000C94702B8C018DE997E089839A83CE011A
:102910000196BC0187EA94E051DFC80109839A83DC
:10292000CE010196BC0180EA94E048DF2296E4E003
:102930000C948C2B10927B03E2E0F2E086E0119283
:102940008A95E9F780E090E00E94770B80E090E0C4
:102950000E949E0B10928103EFD9EBE5F3E085E036
:1029600011928A95E9F71092590310925803109228
:102970005A035FCDDFDF8FEF94E32CE0815090406E
:102980002040E1F700C0000088E19AE00FB6F8941B
:10299000A895809360000FBE90936000FFCFCF9307
:1029A000DF93EC018091E302883010F0C3DF80E018
:1029B000E82FF0E0EE0FFF1FED52FD4F9E01C083A8
:1029C00031838F5F8093E302DF91CF910895AAE274
:1029D000B0E0EDEEF4E10C94712B8BE092E0FC01A1
:1029E00001962091F100208322E083319207B9F70C
:1029F00080910C02893009F459C0C8F4823009F47E
:102A0000B7C0833009F486C0813089F18091E80035
:102A100083FFEBC080910B0290910C029A3008F07A
:102A2000E4C0E92FF0E0EA50F34D0C94CB2B8A3050
:102A300009F48DC08B3051F780910B02813231F750
:102A400080910F0290911002892B01F78091E8008C
:102A5000877F8093E8000E947C0C81E090910D02BA
:102A6000911101C080E08093140164DFCFCF809189
:102A70000B02813A59F68091E800877F8093E80045
:102A800080910F0290911002892B61F060E080E04C
:102A900090E070E00E94EF0B8091E8008B778093CC
:102AA000E800B4CF68E083E192E0F3CF80910B02BD
:102AB000813209F0ABCF80910F02909110028D7F8F
:102AC000892B09F0A3CF8091E800877F8093E800ED
:102AD0008091E80082FF19C02091F3008091F200FC
:102AE000922F029731F48091F100813011F08630FD
:102AF00021F48091F100809313018091E8008B779D
:102B00008093E8000E947C0C81CF80917802811133
:102B1000DFCF7CCF80910B02813A09F077CF809193
:102B20000F0290911002892B09F070CF8091E8007C
:102B3000877F8093E8008091E80080FFFCCF809140
:102B400014018093F1008091E8008E77D9CF8091B5
:102B50000B02813209F05ACF8091E800877F809381
:102B6000E8000E947C0C80910E02809312014ECFEF
:102B700080910B02813A09F049CF8091E800877F6C
:102B80008093E8008091E80080FFFCCF80911201E3
:102B9000D8CF803889F0823841F580910F028F704C
:102BA000873018F58093E9008091EB0085FB88273A
:102BB00080F91092E90006C080917702880F909109
:102BC0000802892B9091E800977F9093E80080930A
:102BD000F1001092F1008091E8008E7723C08111FE
:102BE00016C080910D02813011F18091E80083FFC1
:102BF0000AC08091E800877F8093E8008091EB0015
:102C000080628093EB00AA96E3E00C948D2B8230D7
:102C100061F780910D02811581F01092E900809199
:102C2000E800877F8093E8000E947C0CDECF933021
:102C300009F080E080937702F0CF80910F028F70CF
:102C4000282F2150263088F68093E9002091EB0050
:102C500020FFE3CF933031F48091EB0080628093CA
:102C6000EB00DBCF9091EB0090619093EB0021E0C3
:102C700001C0220F8A95EAF72093EA001092EA0039
:102C80008091EB008860EBCF8111AFCF80910D0276
:102C90008F77182F8091E3008078812B8093E30059
:102CA0008091E800877F8093E8000E947C0C8091EF
:102CB000E80080FFFCCF8091E30080688093E30010
:102CC00083E0111101C082E0809378028ECF80589A
:102CD000823008F08ACF80910D0290910E028C3DD7
:102CE00023E0920791F583E08A838AE289834FB7D4
:102CF000F894DE01139620E03EE051E2E32FF0E08D
:102D000050935700849120FF03C082958F703F5FDE
:102D10008F708A30C0F0895C8D931D922F5F2431B3
:102D200069F74FBF8091E800877F8093E8006AE2EF
:102D300070E0CE0101960E94EF0B8091E8008B7746
:102D40008093E80052CF805DE7CF292F30E0233019
:102D5000310509F44DC078F52130310509F47CC006
:102D600084E590E0EBE7F1E02230310509F03DCF5A
:102D70002091E800277F2093E800209111023091F4
:102D800012028217930708F49C0140E021153105D7
:102D900009F067C0411165C08091E80082FDCDCF88
:102DA00080917802811549F2853039F28091E800EE
:102DB00083FFF2CFC2CF80910F0290911002213297
:102DC0003105D9F12232310509F00FCF8330910559
:102DD00008F00BCFFC01EE0FFF1FE65AFE4F0190EB
:102DE000F081E02D895A9E4FDC018C9190E011C05A
:102DF000282F30E0813089F022303105B1F0232BCB
:102E000009F0F3CEEFE2F2E0E4918E2F90E0EFE2F2
:102E1000F2E0009709F4E9CEABCFE5E0F2E0E4910F
:102E20008E2F90E0E5E0F2E0F4CFE1EEF1E0E49106
:102E30008E2F90E0E1EEF1E0ECCF8330910508F0C9
:102E4000D4CE880F991FFC01E05AFE4F0190F0810B
:102E5000E02D89E090E08CCF82E190E0EFECF1E0B2
:102E600087CF80917802811509F467CF853009F406
:102E700064CF8091E80083FD60CF8091E80082FDFF
:102E80008BCF8091E80080FF81CF4091F30080914B
:102E9000F200942F2115310519F08830910550F07A
:102EA00041E0089709F040E08091E8008E77809338
:102EB000E8006CCF44914093F100319621503109E4
:102EC0000196E8CF803809F090CE8091E800877FA6
:102ED0008093E800809109028093F1007CCE8111FB
:102EE00084CE80910D02182F823008F07ECE809122
:102EF000E800877F8093E800109309020E947C0C11
:102F00001115D1F084E08093780242E061EC81E019
:102F10000E944C0C42E161EC82E00E944C0C42E2C7
:102F200061EC83E00E944C0C80917802843051F473
:102F300082E08093150159CE8091E30087FDE2CFB6
:102F400081E0E1CF81E0F5CFFF920F931F93CF9304
:102F5000DF93C62FD42FF22E8115A9F060936F0353
:102F60000AD980931F029093200281E0C1FD84E082
:102F7000C0FD880FC2FD82950E94DA0ECDB7DEB784
:102F8000E5E00C948B2B80916F03681332C00091A5
:102F90001F0210912002EFD8801B910B8A3A9105F5
:102FA00040F51D2F105ECD17A1F0C77001E0802FF6
:102FB00001C0880FCA95EAF70E94E30E183048F462
:102FC0008D2F877001C0000F8A95EAF7802F0E942D
:102FD000DA0E60E070E08F2DDBDB81E0D1FD84E074
:102FE000D0FD880FD2FD8295183040F60E94E30E86
:102FF000C5CF81E0C1FD84E0C0FD880FC2FD829590
:10300000F5CFA0E0B0E0E7E0F8E10C946C2B7C0198
:10301000FC018481811509F472C060E0C7010E943F
:10302000F207F7012681203170F440916E03309150
:103030006D03431317C030916903311521F03091AE
:103040006A03303178F0F7013581311124C09035B1
:1030500080F5903208F03FC0883E9105C0F4803E74
:103060009105C8F061E0C7010E94F207EC01F70189
:103070008581811509F467C0FE01E054FE47EB30FD
:10308000F10508F060C0E050F34D0C94CB2B9C018F
:1030900031503F31E8F08093620390936303F7016E
:1030A0008281938180936003909361031092200149
:1030B000D9CF803422E5920720F4803222E59207AE
:1030C000D0CF9C01205832452036310520F7CACF99
:1030D0008111E1CFC7CF2031F9CF89E391E00CDC3A
:1030E00080917E03877059F0F7018581811539F051
:1030F0008091800382FF03C082E00E949F05CDB7CC
:10310000DEB7E8E00C94882B8BE391E0E8CF8DE309
:1031100091E0E5CF8FE391E0E2CF81E491E0DFCF72
:1031200083E491E0DCCF85E491E0D9CF8DE491E0B8
:10313000D6CF85E591E0D3CF61E081E030D9D0CF23
:1031400061E082E0FBCFFE01E851FC47E730F1058A
:1031500000F5E55FF24D0C94CB2B26E241EE61EEDB
:10316000F3DEBECF27E245EE65EEFACF26E241EE72
:1031700060EEF6CF27E245EE64EEF2CF26E241EEB6
:1031800062EEEECF27E245EE66EEEACF28E241E0BE
:10319000EBCF811509F402C410926F039E013057E2
:1031A0002332310508F008C484E090E00E94512CDD
:1031B00080937F0390938003FE01E150F047E23259
:1031C000F10520F4EE5EF24D0C94CB2B80917F0341
:1031D000816080937F0360917F037091800384E01E
:1031E00090E00E94702CA6DB7BCF809180038860EA
:1031F00080938003F0CF80917F038260EACF80913B
:103200007F038460E6CF80917F038860E2CF809166
:1032100080038160EDCF809180038260E9CF80914F
:103220007F038061D6CF80917F038062D2CF80916F
:103230007F038064CECF7EDB80917F038068C9CF1F
:1032400080917F038C60C5CF809180038360D0CF55
:1032500080917F038E7FBDCF80918003877FC8CF11
:1032600080917F038D7FB5CF80917F038B7FB1CF1E
:1032700080917F03877FADCF809180038E7FB8CF11
:10328000809180038D7FB4CF80917F038F7EA1CF0B
:1032900080917F038F7D9DCF80917F038F7B99CF1E
:1032A00049DB80917F038F7794CF80917F03837F69
:1032B00090CF809180038C7F9BCF90917F03892F4B
:1032C0008B7F92FF8460877F92FF886082CF80919E
:1032D0008003982F909590FB80F990FB81F988CF1F
:1032E00090917F03892F8F7B96FF806472CF22DBC2
:1032F00090917F03892F97FB87F980586ACF61E00F
:103300008EE090E00E94562C66CF60E0F9CF90915D
:103310007F03892F8F7E94FF80615BCF90917F0325
:10332000892F8E7F90FF816054CF90918003892FE9
:10333000877F93FF88605CCF89E23BC39272FE0176
:10334000E052F847EB30F10508F04BC0EC5CF24D71
:103350000C94CB2B8091730380FF0CC08E7F8093E5
:10336000730383E793E00E94280F109272030E9478
:10337000E108B6CE81608093730361E086958695FF
:10338000DDCE911521F04CD8ABCE9115E1F33ED8AE
:10339000A7CE911529F00E94D20FA2CE9115D9F394
:1033A0000E94CA0F9DCE911529F00E94E50F98CE7C
:1033B0009115D9F30E94DA0F93CE911529F00E944E
:1033C000FB0F8ECE9115D9F30E94F00F89CE911587
:1033D00029F00E945B0F84CE9115D9F30E94510F02
:1033E0007FCE9E01205E324520323105A0F481114E
:1033F00029C08C2F8F71C1E0D0E002C0CC0FDD1F3F
:103400008A95E2F76C2F83E090E00E94562CCE0163
:103410000E94AF0465CE811509F46DC0CB359CE7E1
:10342000D90709F45FC0CC359CE7D90709F44FC030
:10343000CA359CE7D90709F453C0C1309CE7D907C6
:1034400009F458C0C3309CE7D90709F44DC0C11531
:10345000DC4709F050C06EDA8FEF94E32CE0815026
:1034600090402040E1F700C00000F89481E0809394
:10347000E00080E28093D8001092C9008FE19EE4C2
:103480000197F1F700C000001DBA109268001CBC43
:1034900010BE1FBA10927A0010926E0010926F0048
:1034A00010927100109272001092C9001092BC002C
:1034B00014B817B81AB81DB810BA1092BC0015B8D5
:1034C00018B81BB81EB811BA0C94003F09CE8091F1
:1034D0008003002482FF0394802D0E94850E00CE7D
:1034E00081E0FBCF80E0F9CF6FEF7FEF80E090E0ED
:1034F0000E94702C3FDAF7012781308521153105B4
:1035000091F400811181811509F447C0C8010E941E
:10351000BE07C82F682FC8010E94D704B8018C2F9E
:103520000E94BD0501C0C9010E94D206D82FC92F33
:10353000F701D580068102950F7080917E03877018
:1035400001F1CD2CD114F1F0892F807F803461F00E
:103550008D2F805E8830A8F0892F807E803221F404
:10356000D23078F0011569F08091800382FF09C0A4
:1035700082E00E949F0580917E038770CC24C394D3
:103580008111C12CEC2FE295EF70C03C08F068C0AF
:10359000F0E0E15CF24D0C94CB2BC8010E940C05CD
:1035A000C82FBCCF1C2F1F70C03110F01295107F98
:1035B000D114B9F0111569F08D2F805E883010F0AC
:1035C000D11109C080917B03812B80937B030E94E2
:1035D0009C0E8D2F3EC080918103812B80938103AF
:1035E000F6CF8D2F86D81115D9F18D2F805E8830BA
:1035F00010F0D11104C0812F0E94B50506C01095AE
:10360000809181038123809381030E949C0E28C0B6
:103610001C2F1F70C07FC03211F01295107FD13067
:1036200040F009F462C0D11409F46BC00115A1F196
:10363000D0CF8091800382FD2BC0D11469F0111589
:1036400039F080917B03812B80937B030E949C0E39
:1036500080E00E94F51204C080E04BD81111CBCF5E
:10366000C11409F4B7C080917E0380FDB3C0F70197
:1036700015828695869586950E94B904C701C1DC9E
:1036800080917E038695869586950E94C704A2C088
:10369000D11489F0013020F4812F0E94DA0EE0CF9E
:1036A000F9F680917C03912F98231917C9F2812B89
:1036B00080937C03D5CF0111D3CF812F0E94E30EDD
:1036C00090917C03812F892329F0812F8095892374
:1036D00080937C0380917D03912F982309F4C0CFC0
:1036E0001095182310937D03BBCFD11421F0023025
:1036F00008F0B6CFD1CF0111B3CF812F0E94E30ED6
:10370000AFCF0115D1F3D93349F48FEF97EE23E012
:10371000815090402040E1F700C000008D2F0E94B2
:1037200079139ECF8C2F869586958370813060F0BB
:1037300009F096CF8D2F9C2F9370D11002C080E09E
:1037400090E00E949E0B8CCF8D2F9C2F9370D110F8
:1037500002C080E090E00E94770B82CF6D2D8D2F0C
:103760000E943E127DCF8C2F837009F046C0D1108D
:103770002FC04D2F429546954770440F440F2D2F73
:103780002F7030E0042E02C0220F331F0A94E2F79C
:1037900080E090E0D4FF09C08FE090E002C0880F85
:1037A000991F4A95E2F780959095C695C695C37086
:1037B000C230D1F0C330A9F04091F9035091FA031F
:1037C000C13069F0822B932B842395230E94AF0490
:1037D0000E94680B60E0C7010E94F20790CC242B86
:1037E000352B822B932BF2CF822B932B2091F90335
:1037F0003091FA0382279327E9CFD11491F1C0FFCA
:10380000E7CF4D2F429546954770440F440F2D2F1B
:103810002F7030E0042E02C0220F331F0A94E2F70B
:1038200080E090E0D4FF09C08FE090E002C0880FF4
:10383000991F4A95E2F780959095C695C695C370F5
:10384000C230C1F0C33099F04091FB035091FC03AA
:10385000C13059F0822B932B842395230E94B4040A
:10386000B7CF823008F4B4CFCCCF242B352B822BAA
:10387000932BF4CF822B932B2091FB033091FC03ED
:1038800082279327EBCFCF70D11439F08C2F0E9471
:10389000B9048D2F0E94DA0E9BCF8D2F0E94E30E6C
:1038A0008C2F0E94C70494CFD23FA1F170F4D03F77
:1038B000C9F0D13F91F0D11409F45CC0011509F4AD
:1038C00056C08D2F0E94F51283CFD33F51F1D43FC4
:1038D00091F79091800392FD32C08C2F8F71D1149B
:1038E00001F31CC0D11491F0011172CFCF7181E0AE
:1038F00090E002C0880F991FCA95E2F7EC01809111
:10390000FB039091FC038C279D27A8CF023008F081
:103910005FCFECCF8C2F8F71D110C3CF0E94B90431
:1039200057CF80E090E0D11409F498CFCF7181E0B7
:1039300090E002C0880F991FCA95E2F78FCFD1148B
:1039400061F08C2F8F7192FFE9CF982F990F990F0B
:10395000990F936090937E03E1CF81E00E949F05D1
:10396000023008F435CF82E00E949F0531CF8C2FC2
:103970008F71D4CF011579F0D93349F48FEF97EED9
:1039800023E0815090402040E1F700C000008D2FDF
:103990000E9479131DCF8C2F8F7183CFC6319CE786
:1039A000D90709F01ECD80917003811509F4C4CCAC
:1039B00085E30E94DF0B14C090917B03C6312CE796
:1039C000D20709F0BBCC9A7A81E0911101C080E066
:1039D0008093700385E3911101C089E20E94C50BB9
:1039E0000E949C0E7DCB80916A03803170F480919F
:1039F0006903811551F0E0916E0320916D033091C0
:103A00006503409164032E1301C00895BF0189E04E
:103A1000E89FF0011124DF01AC51BD4F14968C9149
:103A20001497811551F111968C911197831325C02C
:103A30008C91841322C015968C91159781111DC00D
:103A400012968D919D91A0916603B09167038A1B98
:103A50009B0B8A3A910588F480916A038F7080618C
:103A600080936A03E651FD4F80818F70806180836F
:103A700084E693E0C6DA0C9495056F5F7F4FFB01F7
:103A8000E770C1CFEF92FF920F931F93CF93DF9315
:103A9000F82EE92EC0916E0380916D03C81789F14D
:103AA00089E0C89FE00111248E010C511D4FF801DF
:103AB0008581811589F0C8010E941F08811561F078
:103AC000FE01E651FD4F80818F7080618083F80197
:103AD000808191810E94CF14C80193DA80916E0396
:103AE00090916F030196877080936E03CC51DD4FE8
:103AF00089818E11CFCF88818F11CCCF8D81811597
:103B000049F2CDB7DEB7E6E00C948A2BFF920F9313
:103B10001F93CF93DF93EC0180912001811539F041
:103B2000F12C8F2DCDB7DEB7E5E00C948B2B0A81FD
:103B30001B81061B170B043F81E0180788F760E024
:103B4000CE010E94F2079C013052303348F70E94A8
:103B50006B05811529F380916203909163030E94A4
:103B60006B05F82E8115E1F204361105C8F68E8139
:103B70008F7080618E83888199810E94CF140E940A
:103B80005E05CE013EDACDCFAFE0B0E0EAECFDE17C
:103B90000C94652B8C0186E0F801DE011A960190E9
:103BA0000D928A95E1F7F80160807180C280D38020
:103BB000E480F5803091E302E0E0F11409F43EC0C6
:103BC00094E6A92E93E0B92E80916803811160C01C
:103BD000E11419F1F11409F490C2C8010E941F0800
:103BE000811509F48AC26091600370916103C80174
:103BF0008DDF811112C089E0F801D50101900D928D
:103C00008A95E1F780916803813031F480916403F3
:103C1000909165030E941508E6DEFF24F3948FC09F
:103C2000880F991F8D529D4FDC0111962C91119791
:103C3000721203C08C91681649F0EF5F8E2F9E2F91
:103C4000990F990B831791055CF3BACFEF3F09F4F5
:103C5000B7CFD80116968C918F7080618C93E31743
:103C6000A0F431503093E302E31778F4F0E0EE0F64
:103C7000FF1FED52FD4FA32FB0E0AA0FBB1FAD52A7
:103C8000BD4F8D919D91808391830E945E0598CF59
:103C900060E084E693E00E94F2074C0150906903D3
:103CA00080916603909167039601281B390B51148C
:103CB00009F4DEC12A3A310508F0ACC1E11409F477
:103CC000ACCF90916503F801218180916A03803126
:103CD00008F056C1291353C0209164039081291321
:103CE0004EC040916B0350916C0327813085421781
:103CF000530709F044C0F11042C08F708061809377
:103D00006A0384E693E07DD980916A03F801868393
:103D1000C0906603F090670300916E0380916D037D
:103D2000081751F089E0089F800111240C511D4FA4
:103D3000F8018581811108C00E949505F12C8F2D15
:103D40002F96EFE00C94812BD280E380C8010E9473
:103D50001F0881110DC0C80154D980916E03909144
:103D60006F030196877080936E03CD2CFE2CD4CF09
:103D70006C2D7F2DC801CADE8111EFCFDDCFC401CC
:103D80009052903308F070C0F110CCC040E0672D25
:103D9000862D0E943F0581113FC040E0672D862D92
:103DA0000E943F05F82E811509F491C084E693E046
:103DB00028D960E084E693E00E94F2076C015090FD
:103DC0006E03052D18E084E6882E83E0982E8091FE
:103DD0006D03081781F0580129E0029FC0011124EA
:103DE0008C519D4F7C0160E00E94F2073C01F7017D
:103DF0008581811142C0183008F466C08A859B8590
:103E000041DE0E945E050E949505E4E6F3E089E04C
:103E100011928A95E9F792CF60E0C8010E94F207FB
:103E20009801AC0164E673E0C4010E94650481114D
:103E3000B4CF80916A038F70806180936A03809110
:103E40006403909165030E94CF1484E693E0D9D86F
:103E5000E4E6F3E089E011928A95E9F78A859B858B
:103E600011DE0E945E0568CFF11409F496CF8091AF
:103E70006A03816080936A0361CFC60190529033D8
:103E800008F0B9CF9701A301B401C6010E946504EF
:103E9000811101C0012F95012395102F022F07706A
:103EA0006301470194CF29E0529EC00111248C5137
:103EB0009D4FA7D820916E0330916F032F5F3F4F26
:103EC0002770522E20936E035112EDCF97CF8A8523
:103ED0009B850E941508292F22952F70903450F44D
:103EE0009F70223078F0911591F0F8019681903111
:103EF00070F425CF2A5F2F70223070F0C80181D86E
:103F0000F52C1DCF911519F0811509F418CF805E9D
:103F1000883008F414CFF2CF803F08F410CF815FCF
:103F20008330F7CF80916A03816080936A0360E0F9
:103F3000C8010E94F2079801AC0164E673E0C40175
:103F40000E9465048111FACE80916A038E7F80936E
:103F50006A03C8010E941F088111F0CE80916A0394
:103F60008F70806180936A038091640390916503F0
:103F70000E94CF140E945E0584E693E042D845CFAC
:103F800029131CC0209164039081291317C040910C
:103F90006B0350916C03278130854217530771F4EE
:103FA000F1100CC08683C8012CD889E0F801A4E682
:103FB000B3E001900D928A95E1F72FCEC8010E94DF
:103FC0001F08811509F499C0F11409F496C0809175
:103FD0006A038032B0F02091640330916503298335
:103FE0003A83CB82DC82909168039D831E828F830B
:103FF00080916B0390916C0388879987CE0101961D
:1040000000D889E0F801A4E6B3E001900D928A950A
:10401000E1F702CE80916A03803130F484E693E0C8
:104020000E940118F501F3CEE11409F4F6CD2091B8
:104030006503F80191812913C1CF20916403908118
:104040002913BCCF40916B0350916C0327813085BD
:104050004217530709F0B2CFF110B0CF8683C801E1
:104060000E940118F50189E011928A95E9F7D5CDF2
:104070002A3A3105B8F6E11409F4CFCDF114E9F18B
:1040800090916503F8018181981321C09091640398
:10409000808198131CC020916B0330916C03878141
:1040A00090852817390799F490916A0390FD7DCF88
:1040B000903108F47ACF892F9683907F903F09F44E
:1040C00072CF982F907F905F8F70892B6BCFC80134
:1040D0000E941F08811561F0609160037091610377
:1040E000C80114DD811509F48CCFE4E6F3E0BBCF01
:1040F00080916A03816080936A03C8010E9401185D
:104100008CCDA2E1B0E0E7E8F0E20C94702B0A87D6
:104110001B872C873D874E875F87688B798B8A8BBF
:10412000CE010A9631DD81112EC020916D033091B0
:104130006E0389E0AE01465F5F4FFA0149505109B5
:10414000DA0101900D928A95E1F78E858115D9F0FB
:10415000822F90E08395877090E0AC0134171506AC
:10416000D1F199E0929FD0011124AC51BD4F9E0135
:104170002F5F3F4FF90101900D929A95E1F740931F
:104180006D030E94950580916E0390916D038917D0
:1041900049F029E0829FC00111248C519D4FF4DC2D
:1041A000811126C08E85811112C08091200181115C
:1041B0000EC08C859D852091600330916103821B28
:1041C000930B8F3F9F4318F081E08093200162960C
:1041D000E4E00C948C2B0E949A1410926D031092C0
:1041E0006E03E4E6F3E089E011928A95E9F7CBCF1C
:1041F00080916E0390916F030196877080936E0398
:10420000C2CFA9E0B0E0E7E0F1E20C946E2B7C01B4
:10421000FC0182819381892B91F0FE01319687E028
:1042200011928A95E9F70E94BB109C01F7017281F7
:10423000838109811A8144E05E816F8162DFF70129
:1042400015822996E6E00C948A2BEF92FF920F9349
:104250001F93CF93DF938091F603E0912102CDE08D
:10426000811130C0CDB7DEB7E6E00C948A2BDE2F8B
:10427000DF5FD0932102EE2EF12CCE9FF0011124AE
:10428000E257FC4F84818115E1F087819085892B6D
:1042900021F481859285019651F40081118122815A
:1042A0003381448155816681778180852ADFCE9D67
:1042B000F001CF9DF00D1124E257FC4F14821092B3
:1042C0008103ED2F8091F603E81788F21092F60330
:1042D00010922102C7CF4F925F927F928F929F924E
:1042E000AF92BF92CF92DF92EF92FF920F931F9304
:1042F000CF93DF93C0918D0391E0E92EF12C809153
:104300008C038C1313C0A1DF0E94C40ADF91CF91EC
:104310001F910F91FF90EF90DF90CF90BF90AF90E3
:104320009F908F907F905F904F900895D0E0FE0116
:10433000EE0FFF1FEE57FC4F00811181A0E0B0E0AF
:104340000330110540F487E0809FD001819FB00DBC
:104350001124AF5DBE4F14968C911497811159C0F2
:104360007090F6034EE853E020E030E0A12C2715D2
:1043700008F04CC0FA0143845484CD90DD9012972C
:1043800099249A94892CB12C8B2D90E0F601EB0D99
:10439000F11DEB0DF11D659175914616570609F05B
:1043A000C401672B19F0B3944C01EECF8F3F9807EF
:1043B000A9F1B70101C0660F8A95EAF7A62AC701DD
:1043C0000B2C02C0880F991F0A94E2F70197A816D8
:1043D000190611F512968D919D914DE0429FF001C5
:1043E000439FF00D1124E257FC4F8783908784E0B0
:1043F0008483108211820187128781E011968C9349
:1044000015978B2D813011F4CD01FBDEC8010E9480
:10441000E10AC395C37073CFFA0114822F5F3F4F37
:10442000435F5F4FA4CF1092F7031092F8031092EE
:10443000360180918C0380938D030E94C40A05CFBE
:10444000AEE1B0E0E6E2F2E20C94622B4B8B5C8BC7
:104450006D8B7E8B8F8B792E988F911110928103AB
:10446000188A198A1A8A86E0FE017396DE011A9666
:1044700001900D928A95E1F76F886114E1F06E86E4
:104480007F8661E0CE010A960E94F20761E0CE01CC
:104490000A960E94F20761E0CE010A960E94F20796
:1044A0006C0180E5C8168CE7D80689F4711421F1F7
:1044B00081E0809336016E867F860A851B852C8578
:1044C0003D85A301688979898A891BDEC3C081E59E
:1044D000C8168CE7D80621F4711471F0A4DFEBCF75
:1044E00082E5C8168CE7D80639F4711429F080915A
:1044F00036018111F3CFDCCF01E211E0412CA12C78
:10450000B12C45018394F801208131816FEF80E067
:104510009FEFE82EF12CF901E80FF11DE80FF11DD6
:1045200045915591C416D50611F0E62EF92E452B6E
:1045300021F08F5F6E2D9F2DECCF9FEFE916FE04CB
:1045400009F448C1F8014481509036014111512CC1
:10455000F80135809681711409F403C1511409F4EE
:1045600000C1311014C021E00E2C01C0220F0A94AA
:10457000EAF7922B968320918A0330918B032233A2
:10458000310528F422E320938A0310928B039401CF
:1045900002C0220F331F8A95E2F7C9010197F80183
:1045A00026812817190609F0C3C0E090F703F090A0
:1045B000F803E114F10409F451C00E94BB108E19F4
:1045C0009F09C39708F44AC081E0F8018483482A10
:1045D0008FEFA81AB80A095F1F4F83E0A816B1042D
:1045E00009F091CF711409F4F7C0411409F4F4C033
:1045F0000E94BB108093F7039093F8038091F60319
:10460000883040F5982F9F5F9093F60399E0FE0164
:104610003A969E012F5F3F4FD90101900D929A95D6
:10462000E1F76D827E822DE0829FC00111248257C6
:104630009C4F29E0AE014F5F5F4FFA01DC01019012
:104640000D922A95E1F72FEF3FEFFC01218732878A
:10465000C386D4866E96E2E10C947E2B90918D03F6
:1046600080918C03292FA0E0B0E037E061E098173B
:1046700009F44DC0492F50E0998F1A8EFA01EE0FC0
:10468000FF1FEE57FC4F40815181A0E0B0E0433066
:10469000510538F4349FD001359FB00D1124AF5D22
:1046A000BE4F4D915D9112974D8F5E8FE12C70E062
:1046B000F12CED8DFE8DEF0DF11DEF0DF11D25900F
:1046C000359021143104D9F0F801408151814B8F8C
:1046D0005C8F70E007C0E1E02416350609F0E0E0E9
:1046E000EE2A7F5FEB8DFC8DE70FF11DE70FF11DCB
:1046F000459155914115510571F7F394DACFE114C5
:1047000069F17F15B8F4F80191E09483D801209302
:104710008D03A017B10761F090E0FC01EE0FFF1FC1
:10472000EE57FC4FA082B1820196837080938C0378
:10473000852D4DCF109761F014966C931497A017A8
:10474000B10721F3291304C0A9014395242F237035
:10475000498D5A8D4395942F937089CFA0E0B0E096
:10476000F7CF292F30E031101FC0B40102C0660F0F
:10477000771F8A95E2F7CB0101972817390771F067
:10478000512CC40102C0880F991FEA94E2F77C0102
:10479000E094F80186818E218683CACF411589F382
:1047A000C5010E94E10AECCFA9010E2C02C055956B
:1047B00047950A94E2F7C901019782239323892B35
:1047C00031F440FF04C0C8011CDD532CDACF417026
:1047D000542ED7CF80E0FBCE90918D0380918C0337
:1047E000981731F078DD842D813009F433CF63CE12
:1047F0002CDD1092F7031092F8030E94C40AF3CF45
:10480000A6E0B0E0E5E0F4E26BC70E94BB108C01CB
:104810008091C7029091C8028017910771F01982A8
:104820001A820E94BB10BC0149815A8180E090E04D
:1048300007DE0093C7021093C8022696E4E06CC717
:1048400000D000D000D0CDB7DEB785B7806885BF77
:1048500085B7806885BF84B7877F84BF0FB6F8941B
:10486000A89580916000886180936000109260003C
:104870000FBE80E890E00FB6F894809361009093AB
:1048800061000FBE81E0809315018FE498E0809372
:10489000FE019093FF010E941B0D0E94CC0C8091A1
:1048A000E20084608093E200789480917802811520
:1048B00099F08091E9001091EC008F7010FB1127A6
:1048C00017F9182B1092E9008091E80083FD0E94EF
:1048D000E7141F701093E90082E084BD93E095BD5A
:1048E0009AEF97BD80936E000E94430E809337012C
:1048F000109238010E9428040E941B04E6E7F4E0AD
:104900008EE011928A95E9F7E9EBF2E08EE01192E0
:104910008A95E9F789EA8093800089E08093810095
:1049200024982C983F98479A54985C9A55985D9A89
:104930006E98769A8FE090E0AFD760936F02709395
:104940007002809371029093720267708FEF689F7C
:10495000B0011124759567957595679570E0709312
:1049600089006093880070938B0060938A00709335
:104970008D0060938C000E94A10D80E090E091D7A3
:10498000833E9E4F91F163EE7EEF80E090E0A8D7EA
:1049900060E082E090E08AD781E090E08093F903C4
:1049A0001092FA0361E083E081D760E074E184E073
:1049B00090E096D70E94420F10926F021092700200
:1049C000109271021092720284E0806180936F02F3
:1049D00044E150E060E070E08FE090E079D760E083
:1049E00070E0AB0183E190E073D782E090E04CD7B8
:1049F0008093870284E090E054D780937F03909364
:104A0000800383E090E040D790E00E94AF04809163
:104A10007302811128C083E793E00E94E90E809120
:104A20007303843008F0C7C00E94420F83E793E00D
:104A30000E94E90E80917303843008F0BCC083703B
:104A4000846080937303109272030E94C20A809163
:104A5000730380FF05C060E0869586950E94CF11A4
:104A600081E080937302809173038160809373036C
:104A700060E0869586950E94CF1160E081E00E94FB
:104A8000CF1186E191E08093C9029093CA02809190
:104A90007802853009F501E010E492E1E92E90E119
:104AA000F92E80917802853009F48DC00E949A1405
:104AB0000E94680B1092760280917502811551F068
:104AC0008091730381608093730360E0869586957F
:104AD0000E94CF110E94B9110E94D010B8E8AB2EED
:104AE000B2E0BB2E89EB92E01C01FC01D5019D9147
:104AF000808126E932E02A173B0709F4DFC03196AE
:104B00009817A9F309E712E0912CF10181901F0198
:104B1000F50161905F016814D9F16824E12CF12C52
:104B200077247394862D872149F1582C5720A1E0D2
:104B3000CA2E0E2C01C0CC0C0A94EAF7F801808131
:104B400090E08C21892B99F4E9829A820E94BB1013
:104B50008B839C8381E08D8391E0511001C090E0B4
:104B60009E8349815A816B817C818D8169DC5110E2
:104B700005C0C094F80180818C218083770C8FEF71
:104B8000E81AF80A86E0E816F10461F6F501829267
:104B900093940F5F1F4F892D8E3009F0B6CF8FB7DA
:104BA000F8944091A0025091A1026091A2027091EC
:104BB000A3028FBF86C0809173038C3A08F443CF61
:104BC0008370886A3ECF80917802843009F436C0C1
:104BD000109272038091760281110DC000937602CB
:104BE00080917303982F9170909375028E7F8093BC
:104BF00073030E94E1081092740288E190E00FB6FE
:104C0000F894A895809360000FBE1093600083B75E
:104C1000817F846083BF83B7816083BF78948895E8
:104C200083B78E7F83BF0FB6F894A89580916000FC
:104C3000886180936000109260000FBE0E94430E56
:104C400080933701109238010E9428040E941B04AF
:104C5000E9EBF2E08EE011928A95E9F70E94D0101C
:104C6000E9EBF2E0A9E7B2E080E021912D9391E039
:104C7000211101C090E0892B92E0E73CF907A9F7E8
:104C8000811509F40ECF80917702811509F409CFBF
:104C9000F9BCE9BC09B400FEFDCF8091D8008F7D3E
:104CA0008093D8008091E00082608093E000809142
:104CB000E00081FDFCCF0E949A14F3CE981322CF1E
:104CC0009FDD80913601811511F10091F70310915C
:104CD000F80301151105D9F00E94BB10801B910B40
:104CE00020918A0330918B032817390780F4909123
:104CF0008D0380918C03981709F42CC1ECDA109283
:104D00008A0310928B031092F7031092F80380919C
:104D10007203811509F444C080917103E09173031B
:104D2000E695E695E81BE0939802853109F476C193
:104D300008F027C1893009F465C108F013C1823039
:104D400009F44AC1863009F452C100ED17E0F1E5DB
:104D5000EF2EF8E0FF2E80919902811561F01092FC
:104D600099020E94BB108093960290939702109232
:104D70009A0210929B020E94BB10209196023091E1
:104D80009702821B930B8F3F9F4750F4200F311FD8
:104D9000209396023093970286E992E0F7010995F5
:104DA000B0905B0310915C03D0905D03C0905E03F4
:104DB00000915F0310925C0310925D0310925E03FA
:104DC00010925F03812F8D2909F441C0E0909E026B
:104DD000F0909F020E94BB108E199F099C01909138
:104DE0005903911509F431C12531310580F19F3FF7
:104DF00019F09F5F90935903111559F00E94200BF1
:104E000091E011160CF09FEF899F802D1124809363
:104E10005C03D11459F00E94200B91E01D140CF09A
:104E20009FEF899F802D112480935D0380915C0307
:104E3000811569F0F0905D03F11449F00E94120BA6
:104E400080935C038F2D0E94120B80935D03802F53
:104E50008C2909F441C0E0909C02F0909D020E94D0
:104E6000BB108E199F099C0190915803911509F46C
:104E7000E7C02531310580F19F3F19F09F5F909386
:104E80005803C11459F00E94450B91E01C140CF01A
:104E90009FEF899F802D112480935E03011559F0A7
:104EA0000E94450B91E010160CF09FEF899F802D1A
:104EB000112480935F0380915E03811569F0F09067
:104EC0005F03F11449F00E94120B80935E038F2D53
:104ED0000E94120B80935F0380915B038B1119C0BA
:104EE00080915C03811511F0181313C020915D03AC
:104EF000211511F02D110DC090915F03911511F046
:104F0000091307C030915E03311103C0822B892B36
:104F100011F00E941912B0925B0310935C03D092BF
:104F20005D03C0925E0300935F030E94680B909143
:104F3000A402891709F4ABCD8093A4028FB7F8942B
:104F40004091A0025091A1026091A2027091A3022F
:104F50008FBF9DCD7AD91092F7031092F8030E946B
:104F6000C40AD5CE8F3009F0F0CEE695F0E0E051DE
:104F7000FB4FE4910E2F10E059E6E52E59E0F52E97
:104F8000EACE04EF11E096E9E92E9AE0F92E843298
:104F900009F4E1CE78F4883109F44BC0833209F08A
:104FA000D4CEEBEEF4E0059115913CE7E32E3AE028
:104FB000F32ED1CE853209F0C8CE8E2F63E0BFD359
:104FC000E92FF0E0E851FB4FE4910E2F10E026E0CE
:104FD000E22E20E1F22EBFCEF0E0E750FB4FE4914D
:104FE0000E2F10E0E0E3EE2EE9E0FE2EB4CEF0E06E
:104FF000EA50FB4FE4910E2F10E071E2E72E79E0CA
:10500000F72EA9CEE695F0E0ED50FB4FE4910E2F80
:1050100010E063E4E62E69E0F62E9DCEF0E0E35169
:10502000FB4FE4910E2F10E043ECE42E49E0F42E08
:1050300092CE08E210E08BE0E82E8AE0F82E8BCECC
:105040002139314008F01ACF47CF232B09F0D1CEB8
:10505000FECE78941F921FB61F9211248F939F93B8
:10506000AF93BF938091A0029091A102A091A20260
:10507000B091A3020196A11DB11D8093A00290934F
:10508000A102A093A202B093A302BF91AF919F91FE
:105090008F911F901FBE1F9018951F920F920FB6F1
:1050A0000F9211242F933F934F935F936F937F93AE
:1050B0008F939F93AF93BF93EF93FF938091E10002
:1050C00082FF09C08091E20082FF05C08091E1006B
:1050D0008B7F8093E1008091DA0080FF24C0809173
:1050E000D80080FF20C08091DA008E7F8093DA00A4
:1050F0008091D90080FFA9C080E189BD82E189BD8E
:1051000009B400FEFDCF81E08093780280910A020D
:10511000811109C00E941B0D0E94CC0C8091E200FD
:1051200084608093E2008091E10080FF1AC080914A
:10513000E20080FF16C08091E2008E7F8093E20043
:105140008091E20080618093E2008091D8008062CB
:105150008093D80019BC85E08093780283E0809327
:1051600015018091E10084FF2FC08091E20084FF4F
:105170002BC080E189BD82E189BD09B400FEFDCF6D
:105180008091D8008F7D8093D8008091E1008F7E40
:105190008093E1008091E2008F7E8093E200809115
:1051A000E20081608093E20080910902811509F498
:1051B00052C084E08093780280917802843009F0B4
:1051C00052C082E0809315018091E10083FF2CC0E2
:1051D0008091E20083FF28C08091E100877F809367
:1051E000E10082E080937802109209028091E10050
:1051F0008E7F8093E1008091E2008E7F8093E200B9
:105200008091E20080618093E20042E060E080E013
:105210000E944C0C8091F00088608093F00081E047
:105220008093150180931401FF91EF91BF91AF918D
:105230009F918F917F916F915F914F913F912F91AE
:105240000F900FBE0F901F90189519BC1092780206
:1052500010920A0268CF8091E30087FF02C083E0CA
:10526000A9CF81E0A7CF81E0ADCF1F920F920FB6FB
:105270000F9211241F932F933F934F935F936F933C
:105280007F938F939F93AF93BF93CF93DF93EF93CE
:10529000FF93E9EEF0E080811091EC008F7010FB3D
:1052A000112717F9182B1082C0EFD0E08881877F73
:1052B000888378940E94E714E9EEF0E010828881F8
:1052C000886088831F701083FF91EF91DF91CF91E9
:1052D000BF91AF919F918F917F916F915F914F910E
:1052E0003F912F911F910F900FBE0F901F90189517
:1052F000EF92FF921F93CF93DF93182FEB01109241
:10530000BC0084EA8093BC000E94BB107C018091A9
:10531000BC0087FF26C08091B900887F883029F0C3
:105320008091B900887F803189F51093BB0084E8B3
:105330008093BC000E94BB107C018091BC0087FF61
:105340001EC02091B900287F80E090E0283189F0CC
:1053500081E090E0203409F480E0919581959109F5
:1053600008C0C7010E94C710C817D90780F68EEF82
:105370009FEFDF91CF911F91FF90EF900895C701AC
:105380000E94C710C817D907C0F6F1CF8FEF9FEF63
:10539000F0CF1092B9008CE08093B80008950F937D
:1053A0001F93CF93DF93EB018093BB0084E880933E
:1053B000BC000E94BB108C018091BC0087FF10C014
:1053C0002091B900287F81E090E0283209F480E044
:1053D000919581959109DF91CF911F910F9108953A
:1053E000CF3FDC0749F3C8010E94C710C817D9078F
:1053F00018F78EEF9FEFEFCF0F931F93CF93DF93AD
:10540000EC0184EC8093BC000E94BB108C01809165
:10541000BC0087FF08C08091BB0090E0DF91CF9176
:105420001F910F910895CF3FDC0789F3C8010E94B7
:10543000C710C817D90758F78EEF9FEFEFCF0F931C
:105440001F93CF93DF93EC0184E88093BC000E940C
:10545000BB108C018091BC0087FF08C08091BB000D
:1054600090E0DF91CF911F910F910895CF3FDC071E
:1054700089F3C8010E94C710C817D90758F78EEFE3
:105480009FEFEFCFA0E0B0E0E7E4FAE220C1982E72
:10549000862E772E6A0179010E94BB105C0184E19F
:1054A000E816F10410F18FEFE816FE0409F1C701C8
:1054B00064E170E0F3D0162F072F612F702F892D34
:1054C00017DFEC01892BB1F4082D172DC00ED11E6A
:1054D0000C151D0511F02097C1F084E98093BC00E4
:1054E000CE01CDB7DEB7EDE00EC111E000E0E5CFB3
:1054F00015E0FCCF8FEFE816FE04F9F2C5010E941B
:10550000C710E816F906C8F6DFCFB701F801819198
:105510008F0145DFEC01DCCF6F927F929F92AF92BB
:10552000BF92CF92DF92EF92FF920F931F93CF9390
:10553000DF937B015A0189018160982E0E94BB1084
:105540003C010431110578F10F3F100781F1C801CA
:1055500064E170E0A3D06B01B601892DC9DEEC01D6
:10556000892B41F5C12CD12C81E0A81AB108CA14AD
:10557000DB04B8F5D7FF28C084E98093BC00CE01D6
:105580001C161D0614F480E090E0DF91CF911F916E
:105590000F91FF90EF90DF90CF90BF90AF909F90D2
:1055A0007F906F900895CC24C394D12CD5CF85E003
:1055B000C82EFBCF0F3F100779F2C3010E94C7101E
:1055C0000817190748F6CECFC80116DFEC0197FD82
:1055D00004C0F701EC0DFD1D80838FEFC81AD80AB7
:1055E000C6CFD7FDC9CFC8012ADFEC0197FD05C0A2
:1055F000EA0CFB1CF7018083BFCFCEEFDFEFBCCFFF
:10560000A0E0B0E0E5E0FBE261C0982E862E742EAB
:10561000652E6901E8010E94BB105C01043111058F
:1056200008F10F3F100711F1C80164E170E036D0B6
:10563000F62EE72E6F2D7E2D892D5ADE8C01892BBB
:10564000C1F0CF3FDC07B1F3C5010E94C710C817F6
:10565000D90780F784E98093BC00C801CDB7DEB7D5
:10566000EEE050C0FF24F394E12CE4CF85E0F82E67
:10567000FBCFBE01882D93DE8C01E72CF62CCE0CDF
:10568000DF1CEC14FD0431F30115110519F7BE01FF
:10569000F70181917F0183DE8C01F3CFAA1BBB1B35
:1056A00051E107C0AA1FBB1FA617B70710F0A61B22
:1056B000B70B881F991F5A95A9F780959095BC0143
:1056C000CD0108952F923F924F925F926F927F92F9
:1056D0008F929F92AF92BF92CF92DF92EF92FF9202
:1056E0000F931F93CF93DF93CDB7DEB7CA1BDB0BAE
:1056F0000FB6F894DEBF0FBECDBF09942A88398853
:1057000048885F846E847D848C849B84AA84B98459
:10571000C884DF80EE80FD800C811B81AA81B98165
:10572000CE0FD11D0FB6F894DEBF0FBECDBFED0179
:10573000089516D1332312F48A1B9B0B33C099278B
:1057400078E0880F991F961708F0961B881F7A95A6
:10575000C9F78095089587FB082E062687FD819559
:1057600067FD6195ECDF0EF4919507FC8195089536
:1057700097FB072E16F4009406D077FD08D08EDF35
:1057800007FC05D03EF4909581959F4F0895709544
:1057900061957F4F0895EE0FFF1F0590F491E02D66
:1057A0000994DED0B7FF0895821B930B0895AAE0F9
:1057B000B0E0ECEDFBE296CF89879A87FC0160812F
:1057C00071818281938100977040604021F464E28E
:1057D00079ED8BE597E02DE133EF41E050E094D097
:1057E00029833A834B835C839B01AC01A7EAB1E434
:1057F000A7D06D837E838F839887ACEEB4EF298129
:105800003A814B815C81A8D02D813E814F815885A2
:10581000260F371F481F591FC901DA01B7FF03C000
:105820000197A109B048E985FA8580839183A28315
:10583000B3839F772A96E2E071CFB9CF80E091E001
:10584000B6CF809300019093010110920201109253
:1058500003010895FC014150504030F001900616BC
:10586000D1F73197CF010895882799270895FB0133
:10587000DC0104C08D910190801921F44150504009
:10588000C8F7881B990B0895F999FECF92BD81BD89
:10589000F89A992780B50895A6E1B0E044E050E079
:1058A00025C0A8E1B0E042E050E020C0262FF999E1
:1058B000FECF92BD81BDF89A019700B4021639F06F
:1058C0001FBA20BD0FB6F894FA9AF99A0FBE089540
:1058D0000396272FECDFEADF252FE9DF242FE7CF20
:1058E0000196272FE4DFE2CFDC01CB01FC01F9991F
:1058F000FECF06C0F2BDE1BDF89A319600B40D921C
:1059000041505040B8F70895052E97FB16F40094C7
:105910000FD057FD05D033D007FC02D046F408C0A5
:1059200050954095309521953F4F4F4F5F4F0895CB
:1059300090958095709561957F4F8F4F9F4F0895FB
:105940000FD0A59F900DB49F900DA49F800D911D29
:1059500011240895B7FFF4CFF3DF821B930B089552
:10596000A29FB001B39FC001A39F700D811D1124A0
:10597000911DB29F700D811D1124911D0895A1E20A
:105980001A2EAA1BBB1BFD010DC0AA1FBB1FEE1FB9
:10599000FF1FA217B307E407F50720F0A21BB30B04
:1059A000E40BF50B661F771F881F991F1A9469F780
:1059B00060957095809590959B01AC01BD01CF01DC
:1059C0000895F894FFCF4A124F12511256126612E0
:1059D0006612661266126612661266126612581215
:1059E0005C125F126412731279127D12C915EF15E1
:1059F000F515EF15F51544166716F51562176F17AF
:105A00006D18841887188A188D189018931896188E
:105A100099189C18A018B618BA18AD18B218BE1864
:105A2000C218C61828198E193019FB18FF18341916
:105A30000319381944190F19871913194819171917
:105A40004C1970191B1950197719201955195D191E
:105A500007193C190B1940192419591967197F198D
:105A60008519F5182C199519AA19C119C519C9193B
:105A7000CE19D319D819DD19E219E719EC19D21A80
:105A8000D21A081B081B921BAE1B301B301BB31B0A
:065A9000431C541C541CD1
:105A96000100000001010201191A1B1C1D1E1F2016
:105AA600212200000100EB0B260EEE0B390E3E0EF6
:105AB60001750129000000006F012A00000000693D
:105AC600012B0000000001200031003200330034B9
:105AD6000035005B000102E1270103E1000102E15C
